:100000000C942A000C943C000C943C000C943C0092
:100010000C943C000C943C000C943C000C943C0070
:100020000C943C000C943C000C944B000C943C0051
:100030000C943C000C943C000C943C000C943C0050
:100040000C943C000C943C000C943C000C943C0040
:100050000C943C0011241FBECFE5D4E0DEBFCDBF21
:1000600020E0A0E6B0E001C01D92A036B207E1F7A3
:100070000E9443000C946C000C940000BE9A81EC2A
:100080008DB9779A08950E943E0080E687B986E987
:1000900086B97894FFCF1F920F920FB60F9211245A
:1000A0008F938FB1779A811108C080E687B9369A0D
:1000B0003699FECF85B18FB909C0823039F487E611
:1000C00087B9369A3699FECF85B18FB98F910F9047
:0C00D0000FBE0F901F901895F894FFCF02
:00000001FF
