S00E00005072616331352E737265632A
S11300000C942A000C943C000C943C000C943C008E
S11300100C943C000C943C000C943C000C943C006C
S11300200C943C000C943C000C943C000C94520244
S11300300C943C000C943C000C943E000C943C004A
S11300400C943C000C943C000C943C000C943C003C
S11300500C943C0011241FBECFE5D4E0DEBFCDBF1D
S113006020E0A0E6B0E001C01D92A836B207E1F797
S11300700E943E020C9460040C9400001F920F92A4
S11300800FB60F9211248F929F92AF92BF92CF928C
S1130090DF92EF92FF922F933F934F935F936F936F
S11300A07F938F939F93AF93BF93EF93FF9364B129
S11300B075B180E090E00E943C034B015C0120E0BC
S11300C030E040EA50E40E94F30320E030EC4FE7D4
S11300D054E40E9494026B017C0120E030E04FE77D
S11300E053E4C501B4010E94F30320E030EC4FE770
S11300F054E40E9494020E94060320916700213078
S113010009F086C07727709362006093610086B31C
S11301108F708093600020E030E0A901C701B60130
S11301200E94EE03882374F020E030E040E85FE3AF
S1130130C701B6010E948F02882324F480916000D5
S113014088BB6AC120E030E040E85FE3C701B60144
S11301500E94EE0388237CF020E030E040E050E48D
S1130160C701B6010E948F0288232CF4809160009D
S1130170806188BB51C120E030E040E050E4C70119
S1130180B6010E94EE0388237CF020E030E040E4D6
S113019050E4C701B6010E948F0288232CF4809199
S11301A06000806388BB38C120E030E040E450E464
S11301B0C701B6010E94EE0388237CF020E030E002
S11301C040E850E4C701B6010E948F0288232CF452
S11301D080916000806788BB1FC120E030E040E868
S11301E050E4C701B6010E94EE0388230CF414C145
S11301F020E030E040EA50E4C701B6010E948F02DB
S113020018160CF409C180916000806F88BB04C18A
S113021020916700211186C0772770936600609350
S1130220650086B3807F8093600020E030E0A90100
S1130230C701B6010E94EE03882374F020E030E089
S113024040E85FE3C701B6010E948F02882324F4CB
S11302508091600088BBE0C020E030E040E85FE3CC
S1130260C701B6010E94EE0388237CF020E030E051
S113027040E050E4C701B6010E948F0288232CF4A9
S113028080916000816088BBC7C020E030E040E01E
S113029050E4C701B6010E94EE0388237CF020E0FD
S11302A030E040E450E4C701B6010E948F02882385
S11302B02CF480916000836088BBAEC020E030E005
S11302C040E450E4C701B6010E94EE0388237CF0A9
S11302D020E030E040E850E4C701B6010E948F02FC
S11302E088232CF480916000876088BB95C020E04F
S11302F030E040E850E4C701B6010E94EE038823D1
S11303000CF48AC020E030E040EA50E4C701B601B2
S11303100E948F0218160CF47FC0809160008F60D9
S113032088BB7AC020916700223009F075C0772716
S1130330709364006093630020E030E0A901C7017A
S1130340B6010E94EE03882364F020E030E040E828
S11303505FE3C701B6010E948F02882314F415BA23
S11303605BC020E030E040E85FE3C701B6010E94D3
S1130370EE0388236CF020E030E040E050E4C70155
S1130380B6010E948F0288231CF481E085BB44C01F
S113039020E030E040E050E4C701B6010E94EE03E3
S11303A088236CF020E030E040E450E4C701B6015B
S11303B00E948F0288231CF483E085BB2DC020E0BB
S11303C030E040E450E4C701B6010E94EE03882304
S11303D06CF020E030E040E850E4C701B6010E9430
S11303E08F0288231CF487E085BB16C020E030E030
S11303F040E850E4C701B6010E94EE03882364F08C
S113040020E030E040EA50E4C701B6010E948F02C8
S1130410181614F08FE085BB809167008F5F80937E
S1130420670080916700833010F01092670087B1F5
S1130430807490916700892B87B9369AFF91EF9168
S1130440BF91AF919F918F917F916F915F914F91E8
S11304503F912F91FF90EF90DF90CF90BF90AF909E
S11304609F908F900F900FBE0F901F90189590BD86
S113047089B988E98AB986E880BD089578948CE0C2
S113048090E00E94370280E487B98CE986B98FEF47
S113049087BB84BB82E081BB369AFFCF5D9BFECFD6
S11304A08CB908951F920F920FB60F9211242F93B7
S11304B03F934F935F936F937F938F939F93AF93E8
S11304C0BF93EF93FF938CB1843539F48091650029
S11304D0909166000E944E0211C0883439F48091D4
S11304E06100909162000E944E0208C0803531F490
S11304F080916300909164000E944E02FF91EF91FD
S1130500BF91AF919F918F917F916F915F914F9127
S11305103F912F910F900FBE0F901F9018950E943E
S1130520790308F481E008950E94A8020C94B403AE
S11305300E94AD0358F00E94A60340F029F45F3FE7
S113054029F00C949D0351110C94E8030C94A3031B
S11305500E94C50368F39923B1F3552391F3951BC6
S1130560550BBB27AA2762177307840738F09F5FD0
S11305705F4F220F331F441FAA1FA9F335D00E2E3D
S11305803AF0E0E832D091505040E695001CCAF7AA
S11305902BD0FE2F29D0660F771F881FBB1F26176D
S11305A037074807AB07B0E809F0BB0B802DBF0144
S11305B0FF2793585F4F3AF09E3F510578F00C9413
S11305C09D030C94E8035F3FE4F3983ED4F38695CF
S11305D077956795B795F7959F5FC9F7880F911D34
S11305E09695879597F90895E1E0660F771F881F20
S11305F0BB1F621773078407BA0720F0621B730BD3
S1130600840BBA0BEE1F88F7E09508950E940D0342
S11306106894B1110C94E80308950E94CD0388F006
S11306209F5798F0B92F9927B751B0F0E1F0660FB2
S1130630771F881F991F1AF0BA95C9F714C0B130F3
S113064091F00E94E703B1E008950C94E703672F4B
S1130650782F8827B85F39F0B93FCCF38695779522
S11306606795B395D9F73EF490958095709561950B
S11306707F4F8F4F9F4F0895E89409C097FB3EF436
S113068090958095709561957F4F8F4F9F4F9923DB
S1130690A9F0F92F96E9BB279395F6958795779559
S11306A06795B795F111F8CFFAF4BB0F11F460FF19
S11306B01BC06F5F7F4F8F4F9F4F16C0882311F071
S11306C096E911C0772321F09EE8872F762F05C085
S11306D0662371F096E8862F70E060E02AF09A9520
S11306E0660F771F881FDAF7880F9695879597F915
S11306F00895990F0008550FAA0BE0E8FEEF1616AF
S11307001706E807F907C0F012161306E407F50701
S113071098F0621B730B840B950B39F40A2661F075
S1130720232B242B252B21F408950A2609F4A14018
S1130730A6958FEF811D811D089597F99F6780E825
S113074070E060E008959FEF80EC089500240A941F
S11307501616170618060906089500240A94121698
S11307601306140605060895092E0394000C11F4CB
S1130770882352F0BB0F40F4BF2B11F460FF04C078
S11307806F5F7F4F8F4F9F4F089557FD9058440FD1
S1130790551F59F05F3F71F04795880F97FB991FDC
S11307A061F09F3F79F08795089512161306140699
S11307B0551FF2CF4695F1DF08C016161706180626
S11307C0991FF1CF86957105610508940895E89401
S11307D0BB2766277727CB0197F908950E947903F1
S11307E008F48FEF08950E9406040C94B4030E9449
S11307F0A60338F00E94AD0320F0952311F00C9469
S11308009D030C94A30311240C94E8030E94C503D4
S113081070F3959FC1F3950F50E0551F629FF0014F
S1130820729FBB27F00DB11D639FAA27F00DB11D68
S1130830AA1F649F6627B00DA11D661F829F2227F1
S1130840B00DA11D621F739FB00DA11D621F839F78
S1130850A00D611D221F749F3327A00D611D231F4E
S1130860849F600D211D822F762F6A2F11249F579C
S113087050409AF0F1F088234AF0EE0FFF1FBB1F9F
S1130880661F771F881F91505040A9F79E3F51055E
S113089080F00C949D030C94E8035F3FE4F3983ECE
S11308A0D4F3869577956795B795F795E7959F5F08
S11308B0C1F7FE2B880F911D9695879597F908959A
S10708C0F894FFCFD6
S9030000FC
