:100000000C942A000C9434000C9434000C943400AA
:100010000C9434000C9434000C9434000C94340090
:100020000C9434000C9434000C9434000C94340080
:100030000C9434000C9434000C9434000C94340070
:100040000C9434000C9434000C9434000C94340060
:100050000C94340011241FBECFE5D4E0DEBFCDBF29
:100060000E9436000C9498030C940000CF93DF9309
:100070001F92CDB7DEB78FEF87BB84BB80E487B913
:1000800085E986B96894BB24B6F801E412E4B7B8F0
:10009000369A3699FECF64B175B1198280E090E04E
:1000A0000E94740220E030E040EA50E40E942B03FA
:1000B00020E030EC4FE754E40E9402026B017C0127
:1000C00086B3807F898320E030E0A901C701B601B3
:1000D0000E94260388236CF020E030E040E85FE3D4
:1000E000C701B6010E94FD0188231CF4898188BBE9
:1000F0005FC020E030E040E85FE3C701B6010E9446
:100100002603882374F020E030E040E050E4C7018B
:10011000B6010E94FD01882324F48981816088BB97
:1001200047C020E030E040E050E4C701B6010E9443
:100130002603882374F020E030E040E450E4C70157
:10014000B6010E94FD01882324F48981836088BB65
:100150002FC020E030E040E450E4C701B6010E9427
:100160002603882374F020E030E040E850E4C70123
:10017000B6010E94FD01882324F48981876088BB31
:1001800017C020E030E040E850E4C701B6010E940B
:10019000260388236CF020E030E040EA50E4C701F9
:1001A000B6010E94FD0118161CF089818F6088BB82
:1001B00007B9369A3699FECF64B175B1198280E0DD
:1001C00090E00E94740220E030E040EA50E40E9497
:1001D0002B0320E030EC4FE754E40E9402026B0155
:1001E0007C0186B38F70898320E030E0A901C701CC
:1001F000B6010E94260388236CF020E030E040E83E
:100200005FE3C701B6010E94FD0188231CF48981C8
:1002100088BB5FC020E030E040E85FE3C701B60183
:100220000E942603882374F020E030E040E050E490
:10023000C701B6010E94FD01882324F489818061F1
:1002400088BB47C020E030E040E050E4C701B60181
:100250000E942603882374F020E030E040E450E45C
:10026000C701B6010E94FD01882324F489818063BF
:1002700088BB2FC020E030E040E450E4C701B60165
:100280000E942603882374F020E030E040E850E428
:10029000C701B6010E94FD01882324F4898180678B
:1002A00088BB17C020E030E040E850E4C701B60149
:1002B0000E94260388236CF020E030E040EA50E4FE
:1002C000C701B6010E94FD0118161CF08981806FDC
:1002D00088BB17B9369A3699FECF64B175B11982C9
:1002E00080E090E00E94740220E030E040EA50E4B8
:1002F0000E942B0320E030EC4FE754E40E940202FE
:100300006B017C0183B3807F898320E030E0A90109
:10031000C701B6010E94260388236CF020E030E07C
:1003200040E85FE3C701B6010E94FD0188231CF489
:10033000898185BBACCE20E030E040E85FE3C701B7
:10034000B6010E942603882374F020E030E040E0EC
:1003500050E4C701B6010E94FD01882324F489817D
:10036000816085BB94CE20E030E040E050E4C701DE
:10037000B6010E942603882374F020E030E040E4B8
:1003800050E4C701B6010E94FD01882324F489814D
:10039000836085BB7CCE20E030E040E450E4C701C0
:1003A000B6010E942603882374F020E030E040E884
:1003B00050E4C701B6010E94FD01882324F489811D
:1003C000876085BB64CE20E030E040E850E4C701A0
:1003D000B6010E94260388230CF459CE20E030E0B9
:1003E00040EA50E4C701B6010E94FD0118160CF462
:1003F0004ECE89818F6085BB4ACE0E94B10208F43F
:1004000081E008950E9416020C94EC020E94E5021D
:1004100058F00E94DE0240F029F45F3F29F00C946E
:10042000D50251110C9420030C94DB020E94FD02B2
:1004300068F39923B1F3552391F3951B550BBB2713
:10044000AA2762177307840738F09F5F5F4F220F58
:10045000331F441FAA1FA9F335D00E2E3AF0E0E84F
:1004600032D091505040E695001CCAF72BD0FE2F99
:1004700029D0660F771F881FBB1F2617370748072D
:10048000AB07B0E809F0BB0B802DBF01FF279358E5
:100490005F4F3AF09E3F510578F00C94D5020C94D2
:1004A00020035F3FE4F3983ED4F3869577956795F4
:1004B000B795F7959F5FC9F7880F911D969587951A
:1004C00097F90895E1E0660F771F881FBB1F621739
:1004D00073078407BA0720F0621B730B840BBA0BF7
:1004E000EE1F88F7E0950895E89409C097FB3EF465
:1004F00090958095709561957F4F8F4F9F4F992371
:10050000A9F0F92F96E9BB279395F69587957795EE
:100510006795B795F111F8CFFAF4BB0F11F460FFAE
:100520001BC06F5F7F4F8F4F9F4F16C0882311F006
:1005300096E911C0772321F09EE8872F762F05C01A
:10054000662371F096E8862F70E060E02AF09A95B5
:10055000660F771F881FDAF7880F9695879597F9AA
:100560000895990F0008550FAA0BE0E8FEEF161644
:100570001706E807F907C0F012161306E407F50797
:1005800098F0621B730B840B950B39F40A2661F00B
:10059000232B242B252B21F408950A2609F4A140AE
:1005A000A6958FEF811D811D089597F99F6780E8BB
:1005B00070E060E008959FEF80EC089500240A94B5
:1005C0001616170618060906089500240A9412162E
:1005D0001306140605060895092E0394000C11F461
:1005E000882352F0BB0F40F4BF2B11F460FF04C00E
:1005F0006F5F7F4F8F4F9F4F089557FD9058440F67
:10060000551F59F05F3F71F04795880F97FB991F71
:1006100061F09F3F79F0879508951216130614062E
:10062000551FF2CF4695F1DF08C0161617061806BB
:10063000991FF1CF86957105610508940895E89496
:10064000BB2766277727CB0197F908950E94B1024F
:1006500008F48FEF08950E943E030C94EC020E9470
:10066000DE0238F00E94E50220F0952311F00C9490
:10067000D5020C94DB0211240C9420030E94FD028D
:1006800070F3959FC1F3950F50E0551F629FF001E5
:10069000729FBB27F00DB11D639FAA27F00DB11DFE
:1006A000AA1F649F6627B00DA11D661F829F222787
:1006B000B00DA11D621F739FB00DA11D621F839F0E
:1006C000A00D611D221F749F3327A00D611D231FE4
:1006D000849F600D211D822F762F6A2F11249F5732
:1006E00050409AF0F1F088234AF0EE0FFF1FBB1F35
:1006F000661F771F881F91505040A9F79E3F5105F4
:1007000080F00C94D5020C9420035F3FE4F3983EF4
:10071000D4F3869577956795B795F795E7959F5F9D
:10072000C1F7FE2B880F911D9695879597F908952F
:04073000F894FFCF6B
:00000001FF
