:100000000C942A000C9447000C9447000C94470071
:100010000C9447000C9447000C9447000C94470044
:100020000C9447000C9447000C9447000C94470034
:100030000C9447000C9447000C9447000C94470024
:100040000C9447000C9447000C9447000C943F011B
:100050000C94470011241FBECFE5D4E0DEBFCDBF16
:1000600010E0A0E6B0E0E4ECF2E002C005900D92F2
:10007000A236B107D9F720E0A2E6B0E001C01D9298
:10008000A436B207E1F70E94F1000C9460010C94D1
:100090000000AE9A00C0AE980895CF93DF93D82F9A
:1000A000662311F0AC9A01C0AC98AD9884B38F6010
:1000B00084BBC5B3C07F8D2F82958F708C2B85BB81
:1000C0000E944900DF70DC2BD5BB0E944900CF6045
:1000D000C5BBDF91CF910895882311F0AC9A01C080
:1000E000AC98AD9A84B3807F84BBAE9A00C093B3C2
:1000F000AE9800C0AE9A00C023B32F70892F8295AE
:10010000807FAE98822B089580E00E946C00882347
:10011000DCF300C080E00E946C000895CF93C82FEC
:100120000E94840060E08C2F0E944D00CF910895C2
:10013000611104C080580E948E00089580540E946E
:100140008E00089581E00E948E000895CF93C82FFD
:100150000E948400CA3049F4803410F080E001C06D
:1001600080E480580E948E0004C061E08C2F0E94C1
:100170004D00CF9108951F93CF93DF93182F84B331
:100180008F6784BB80EA9FE00197F1F7A99AA89A4C
:100190000E94490080EE94E00197F1F70E94490027
:1001A000C0E1D0E0CE010197F1F70E944900CE01F5
:1001B0000197F1F7A8980E9449002197F1F788E28A
:1001C0000E948E0088E00E948E000E94A20086E0BD
:1001D0000E948E00812F0E948E00DF91CF911F918F
:1001E00008958CE00E94BB0088E083BF82E089BF55
:1001F00083E088BF83EF8CBF8EEF8ABB81E08BBB2F
:1002000078941DE0C1E4D8E0C899FECF87E99AE36D
:100210000197F1F700C00000C89BFECF87E99AE381
:100220000197F1F700C0000080916300803178F001
:10023000109263008091630060E00E949800109229
:1002400062000E94A200C0936000D3BFDDCF809106
:10025000630060E00E949800809160000E94A60008
:1002600013BF10926200809160008F5F80936000E6
:10027000809160008B3540F2C0936000C5CF1F9223
:100280000F920FB60F9211248F93809162008F5FAF
:100290008093620080916200843060F080916300FE
:1002A0008F5F8093630081E480936000109262000E
:1002B00088E083BF8F910F900FBE0F901F9018950D
:0402C000F894FFCFE0
:0202C4004100F7
:00000001FF
