:100000000C942A000C9434000C9434000C943400AA
:100010000C9434000C9434000C9434000C94340090
:100020000C9434000C9434000C9434000C94340080
:100030000C9434000C9434000C9434000C94340070
:100040000C9434000C9434000C9434000C94340060
:100050000C94340011241FBECFE5D4E0DEBFCDBF29
:100060000E9461000C94A6000C940000CF93DF93D3
:100070001F92CDB7DEB7898329818DEC289F912D02
:100080001124969596959695492F440F342F330F4A
:10009000330F340F231B40E1249F90011124989FBC
:1000A000812D1124869586958695880F382F330FDC
:1000B000330F830F981B292B25BB0F90DF91CF9116
:1000C0000895CF93DF931F92CDB7DEB78EE78ABB3B
:1000D00081E88BBB8FEF84BB198211E0C8991BC0EC
:1000E00087E99AE30197F1F700C00000C89BFECFB3
:1000F00087E99AE30197F1F700C0000089818F5FDB
:1001000089838981843619F4898181508983898121
:100110000E943600E3CFCF99E1CF87E99AE30197B8
:10012000F1F700C00000CF9BFECF87E99AE301976B
:10013000F1F700C000008981811101C01983898114
:100140008150898389810E943600C8CFF894FFCFFF
:00000001FF
