:100000000C943B000C9450000C9450000C94500045
:100010000C9450000C9450000C9450000C94500020
:100020000C9450000C9450000C9450000C94500010
:100030000C9450000C9450000C9450000C94500000
:100040000C9450000C9450000C9450000C945000F0
:100050000C9450001B0124012D0136013F01480181
:1000600051015A0163016C0175017E018701900104
:100070009901A201AB0111241FBECFE5D4E0DEBF80
:10008000CDBF11E0A0E6B0E0EEE5F5E002C00590DE
:100090000D92A23AB107D9F70E9462020C94AD0208
:1000A0000C940000AE9A00C0AE980895CF93DF93F1
:1000B000D82F662311F0AC9A01C0AC98AD9884B3E8
:1000C0008F6084BBC5B3C07F8D2F82958F708C2BC2
:1000D00085BB0E945200DF70DC2BD5BB0E94520012
:1000E000CF60C5BBDF91CF910895882311F0AC9A02
:1000F00001C0AC98AD9A84B3807F84BBAE9A00C037
:1001000093B3AE9800C0AE9A00C023B32F70892F6E
:100110008295807FAE98822B089580E00E947500C2
:100120008823DCF382E090E00197F1F780E00E9401
:1001300075000895CF93C82F0E948D0060E08C2F2A
:100140000E945600CF910895611104C080580E940A
:100150009A00089580540E949A00089581E00E94B8
:100160009A000895CF93C82F0E948D00CA3049F499
:10017000803410F080E001C080E480580E949A0032
:1001800004C061E08C2F0E945600CF910895CF9358
:10019000DF93EC012196FC018081882329F00E94E5
:1001A000B20089918111FBCFDF91CF9108951F9308
:1001B000CF93DF93182F84B38F6784BB80E89EE3CF
:1001C0000197F1F7A99AA89A0E94520080E893E15A
:1001D0000197F1F70E945200C0E4D0E0CE010197F0
:1001E000F1F70E945200CE010197F1F7A8980E9402
:1001F00052002197F1F788E20E949A0088E00E945D
:100200009A000E94AE0086E00E949A00812F0E9410
:100210009A00DF91CF911F910895E09170008E2F89
:1002200090E0FC013E97E131F10508F09CC0E65DED
:10023000FF4F0C94A70261E080E00E94A40081E7D8
:1002400090E00E94C700089561E080E00E94A40051
:1002500082E890E00E94C700089561E080E00E947B
:10026000A40083E990E00E94C700089561E080E067
:100270000E94A40084EA90E00E94C700089561E013
:1002800080E00E94A40085EB90E00E94C7000895E2
:1002900061E080E00E94A40086EC90E00E94C7002C
:1002A000089561E080E00E94A40087ED90E00E9444
:1002B000C700089561E080E00E94A40088EE90E00D
:1002C0000E94C700089561E080E00E94A40089EFC9
:1002D00090E00E94C700089561E080E00E94A400C1
:1002E0008AE091E00E94C700089561E080E00E94EA
:1002F000A4008BE191E00E94C700089561E080E0D6
:100300000E94A4008AE291E00E94C700089561E083
:1003100080E00E94A40089E391E00E94C700089554
:1003200061E080E00E94A40088E491E00E94C700A0
:10033000089561E080E00E94A40087E591E00E94BA
:10034000C700089561E080E00E94A40086E691E085
:100350000E94C700089561E080E00E94A40085E744
:1003600091E00E94C7000895CF93DF9300D01F92C1
:10037000CDB7DEB789837B836A8383E088BF19BEEC
:1003800089818CBF12BE8A819B8181159440B1F016
:100390008A819B818115914099F08A819B8180346B
:1003A000910581F08A819B81089771F08A819B81F8
:1003B000019761F08A819B8180E009C085E007C0D8
:1003C00084E005C083E003C082E001C081E088666C
:1003D00083BF0F900F900F90DF91CF910895FF9200
:1003E0000F931F93CF93DF93EB01FA0120EFDC0112
:1003F0002C93FF24FA9401E010E0F88247E050E0EB
:10040000BA01C801042E02C0880F991F0A94E2F7AE
:1004100080958883B2E0BA95F1F700C0808180FFB3
:100420000EC021E030E08081D90190E0022E02C0B0
:10043000959587950A94E2F780FD31C002C0A0E04F
:10044000B0E02FE788E391E0215080409040E1F751
:1004500000C0000021E030E00A2E02C0220F331F4E
:100460000A94E2F7808190E082239323892BD1F3D1
:100470002FE788E391E0215080409040E1F700C0F1
:10048000000087E090E0861B970B880F991F880F6C
:10049000991F805A9F4FA80FB91F8C910DC02F5FD5
:1004A0003F4F2430310509F0BECF41505109433050
:1004B000510509F0A5CFA1CFDF91CF911F910F91E9
:1004C000FF90089578948FEF87BB8CE00E94D7004F
:1004D00060E071E08EE00E94B40184E891E00E9447
:1004E000C70061E080E00E94A40085E991E00E94DD
:1004F000C70049E350E06BE370E08AE390E00E94BC
:10050000EF01893029F08D30D9F0813091F70CC09E
:10051000809170008E3129F0809170008F5F809300
:1005200070000E940D01E5CF809170008E3029F09F
:10053000809170008150809370000E940D01D9CF8E
:100540008091700060E071E00E94B401D2CFEE0FA4
:0E055000FF1F0590F491E02D0994F894FFCF61
:10055E000A0908070B0605040C0302010D0E000C18
:10056E000E302E3030206465677265657320202052
:10057E002000342E33322064656772656573202047
:10058E0020200031352E3820646567726565732032
:10059E002020200032372E34206465677265657323
:1005AE00202020200033382E39206465677265655F
:1005BE0073202020200035302E342064656772654C
:1005CE006573202020200036312E39206465677235
:1005DE00656573202020200037332E342064656734
:1005EE0072656573202020200038352E302064651A
:1005FE006772656573202020200039362E35206401
:10060E0065677265657320202020003130382064C4
:10061E006567726565732020200031323020646575
:10062E006772656573202020003133312064656761
:10063E007265657320202000313433206465677243
:10064E00656573202020003135342064656772653E
:10065E00657320202000313636206465677265652B
:10066E00732020200031373720646567726565730B
:10067E002020200053656C65637420706F7369745D
:10068E00696F6E3A00302E303020446567726565B2
:02069E007300E7
:00000001FF
