S00E00005072616331312E737265632E
S11300000C942A000C9447000C9447000C9447006D
S11300100C9447000C9447000C9447000C94470040
S11300200C9447000C9447000C9447000C94470030
S11300300C9447000C9447000C9447000C94470020
S11300400C9447000C9447000C9447000C94470010
S11300500C94470011241FBECFE5D4E0DEBFCDBF12
S113006010E0A0E6B0E0EAEBF3E002C005900D92E8
S1130070A837B107D9F720E0A8E7B0E001C01D9286
S1130080A937B207E1F70E94A4010C94DB010C9498
S11300900000AE9A00C0AE980895CF93DF93D82F96
S11300A0662311F0AC9A01C0AC98AD9884B38F600C
S11300B084BBC5B3C07F8D2F82958F708C2B85BB7D
S11300C00E944900DF70DC2BD5BB0E944900CF6041
S11300D0C5BBDF91CF910895882311F0AC9A01C07C
S11300E0AC98AD9A84B3807F84BBAE9A00C093B3BE
S11300F0AE9800C0AE9A00C023B32F70892F8295AA
S1130100807FAE98822B089580E00E946C00882343
S1130110DCF300C080E00E946C000895CF93C82FE8
S11301200E94840060E08C2F0E944D00CF910895BE
S1130130611104C080580E948E00089580540E946A
S11301408E00089581E00E948E000895CF93C82FF9
S11301500E948400CA3049F4803410F080E001C069
S113016080E480580E948E0004C061E08C2F0E94BD
S11301704D00CF910895CF93DF93EC012196FC01BC
S11301808081882329F00E94A60089918111FBCFE8
S1130190DF91CF9108951F93CF93DF93182F84B3EA
S11301A08F6784BB80EA9FE00197F1F7A99AA89A28
S11301B00E94490080EE94E00197F1F70E94490003
S11301C0C0E1D0E0CE010197F1F70E944900CE01D1
S11301D00197F1F7A8980E9449002197F1F788E266
S11301E00E948E0088E00E948E000E94A20086E099
S11301F00E948E00812F0E948E00DF91CF911F916B
S113020008950F931F93CF93DF93EC01DB01FA0161
S11302109091780080917200891788F041E050E055
S113022088819A01092E02C0220F331F0A94E2F733
S1130230282B28839F5F80917200891788F70FEF1E
S1130240C1E0D0E00C931091780080917200811786
S1130250C8F3612F70E0CE01012E02C0880F991FF0
S11302600A94E2F780958C9300C02091710030913C
S11302707000321708F44BC08081422F50E090E0A8
S1130280022E02C0959587950A94E2F780FD3CC042
S11302900CC08081422F50E090E0022E02C0959560
S11302A087950A94E2F780FD2FC087EA91E60197CB
S11302B0F1F700C0000021E030E0042E02C0220F5C
S11302C0331F0A94E2F7808190E082239323892BE1
S11302D0D1F387EA91E60197F1F700C0000080911D
S11302E0720090E0861B970B2091700030E0241B75
S11302F0350B880F991F880F991F805A9F4FFC0157
S1130300E20FF31F80810AC02F5F321710F61F5FC0
S113031080917200811708F09CCF94CFDF91CF9128
S11303201F910F910895E199FECF9FBB8EBB6DBBCA
S1130330F894E29AE19A78940895E199FECF9FBBEC
S11303408EBBE09A8DB308958CE00E94CB0083E7C6
S113035090E00E94BB0040E350E062E370E081E380
S113036090E00E940101C82F8A30A8F703E010E052
S113037001501109C8010E949D01682FC80101960E
S11303800E9493010115110599F76C2F80E090E00C
S11303900E94930160E080E00E949800C0E0D0E0F9
S11303A0CE010E949D01805D0E94A6002196C4306A
S10D03B0D105B1F7D0CFF894FFCFC8
S11303BA0D0E000F0C0302010B0605040A090807B7
S10B03CA070403303030300059
S9030000FC
