:100000000C942A000C9447000C9447000C94470071
:100010000C9447000C9447000C9447000C94470044
:100020000C9447000C9447000C9447000C94080172
:100030000C9447000C9447000C9447000C94470024
:100040000C9447000C9447000C9447000C94470014
:100050000C94470011241FBECFE5D4E0DEBFCDBF16
:1000600010E0A0E6B0E0E6E5F4E002C005900D92F5
:10007000A03CB107D9F720E0A0ECB0E001C01D9290
:10008000A13CB207E1F70E94C8010C9429020C942C
:100090000000AE9A00C0AE980895CF93DF93D82F9A
:1000A000662311F0AC9A01C0AC98AD9884B38F6010
:1000B00084BBC5B3C07F8D2F82958F708C2B85BB81
:1000C0000E944900DF70DC2BD5BB0E944900CF6045
:1000D000C5BBDF91CF910895882311F0AC9A01C080
:1000E000AC98AD9A84B3807F84BBAE9A00C093B3C2
:1000F000AE9800C0AE9A00C023B32F70892F8295AE
:10010000807FAE98822B089580E00E946C00882347
:10011000DCF300C080E00E946C000895CF93C82FEC
:100120000E94840060E08C2F0E944D00CF910895C2
:10013000611104C080580E948E00089580540E946E
:100140008E00089581E00E948E000895CF93C82FFD
:100150000E948400CA3049F4803410F080E001C06D
:1001600080E480580E948E0004C061E08C2F0E94C1
:100170004D00CF910895CF93DF93EC012196FC01C0
:100180008081882329F00E94A60089918111FBCFEC
:10019000DF91CF9108951F93CF93DF93182F84B3EE
:1001A0008F6784BB80EA9FE00197F1F7A99AA89A2C
:1001B0000E94490080EE94E00197F1F70E94490007
:1001C000C0E1D0E0CE010197F1F70E944900CE01D5
:1001D0000197F1F7A8980E9449002197F1F788E26A
:1001E0000E948E0088E00E948E000E94A20086E09D
:1001F0000E948E00812F0E948E00DF91CF911F916F
:10020000089590BD89B988E98AB986E880BD0895C6
:100210001F920F920FB60F9211242F933F934F937B
:100220005F936F937F938F939F93AF93BF93EF935E
:10023000FF938CB19091C0008053891316C00E9427
:10024000A20080E790E00E94BB002FE181EA97E0E6
:10025000215080409040E1F700C000000E94A200C1
:100260008AE790E00E94BB0015C00E94A20088E8C7
:1002700090E00E94BB002FE181EA97E0215080408E
:100280009040E1F700C000000E94A2008AE790E0E1
:100290000E94BB00FF91EF91BF91AF919F918F9111
:1002A0007F916F915F914F913F912F910F900FBE72
:1002B0000F901F9018955D9BFECF8CB90895FF920B
:1002C0000F931F93CF93DF93EB01FA0120EFDC0133
:1002D0002C93FF24FA9401E010E0F88247E050E00C
:1002E000BA01C801042E02C0880F991F0A94E2F7D0
:1002F0008095888300C0808180FF0EC021E030E0BF
:100300008081D90190E0022E02C0959587950A94CC
:10031000E2F780FD2BC002C0A0E0B0E087EA91E6E2
:100320000197F1F700C0000021E030E00A2E02C082
:10033000220F331F0A94E2F7808190E082239323F7
:10034000892BD1F387EA91E60197F1F700C000000D
:1003500087E090E0861B970B880F991F880F991FE5
:10036000805A9F4FA80FB91F8C910CC02F5F3F4F31
:100370002430310529F6415051094330510509F027
:10038000AFCFABCFDF91CF911F910F91FF90089529
:100390008CE00E94CB008CE090E00E9401017894F8
:1003A00082E081BB8AE790E00E94BB0049E350E015
:1003B0006BE370E08AE390E00E945F018130B9F462
:1003C00061E080E00E94980086E990E00E94BB0016
:1003D00061E080E00E94980087EA90E00E94BB0004
:1003E00081E00E945B0181E08093C000DFCF82301A
:1003F000B9F461E080E00E94980086E990E00E94F4
:10040000BB0061E080E00E9498008EEA90E00E94CC
:10041000BB0082E00E945B0182E08093C000C6CFF7
:10042000833021F661E080E00E94980086E990E048
:100430000E94BB0061E080E00E94980086EB90E0A3
:100440000E94BB0083E00E945B0183E08093C000B8
:06045000ADCFF894FFCFD0
:100456000F0908070E0605040D0302010C0B000A1E
:10046600434F52524543544F210053696D6F6E20DE
:10047600646963652E2E2E00494E434F5252454302
:10048600544F212020002020202020202020202022
:1004960020202020202000446520706965005365D7
:1004A6006E7461646F00416761636861646F000028
:00000001FF
