S0120000507261637469636130332E7372656388
S11300000C942A000C943F000C943F000C943F0085
S11300100C943F000C943F000C943F000C943F0060
S11300200C943F000C943F000C943F000C943F0050
S11300300C943F000C943F000C943F000C943F0040
S11300400C943F000C943F000C943F000C943F0030
S11300500C943F0011241FBECFE5D4E0DEBFCDBF1A
S113006010E0A0E6B0E0E8E0F2E002C005900D92F6
S1130070A037B107D9F70E94D3000C9402010C9465
S11300800000AF92BF92DF92EF92FF920F931F9303
S1130090CF93DF93CDB7DEB760970FB6F894DEBF8A
S11300A00FBECDBF9C0190E1E0E6F0E0DE011196C9
S11300B001900D929A95E1F780EFD9018C93DD249C
S11300C0DA94EE24E394F12CFB01D08207E010E0F3
S11300D05801C701002E02C0880F991F0A94E2F745
S11300E08095DB018C9300C0FA01808180FF0FC0F2
S11300F021E030E0DA018C91F90190E0022E02C097
S1130100959587950A94E2F780FD30C002C0E0E03F
S1130110F0E087EA91E60197F1F700C0000021E0E2
S113012030E00E2E02C0220F331F0A94E2F7DA01E8
S11301308C9190E082239323892BC9F387EA91E67B
S11301400197F1F700C0000087E090E08A199B094D
S1130150880F991F880F991FA1E0B0E0AC0FBD1F55
S11301608A0F9B1FE80FF91F80810DC02F5F3F4F3F
S11301702430310509F0BECF0150110903301105B7
S113018009F0A6CFA1CF60960FB6F894DEBF0FBEDC
S1130190CDBFDF91CF911F910F91FF90EF90DF9032
S11301A0BF90AF9008958FEF84BB81BB49E350E0CB
S11301B06BE370E08AE390E00E94410020E030E0CD
S11301C0682F70E062177307B9F48D3019F412BA0E
S11301D015BA12C08A3080F440B350E0542F44273B
S11301E093B3492B42955295507F5427407F54270F
S11301F0462B572B52BB45BB2F5F3F4F2031310558
S10B020009F7D4CFF894FFCFF5
S11302080A0302010B0605040C0908070D0E000F6A
S9030000FC
