S00E00005072616331322E737265632D
S11300000C942A000C9447000C9447000C9447006D
S11300100C9447000C9447000C9447000C94470040
S11300200C9447000C9447000C9447000C94470030
S11300300C9447000C9447000C94A7010C944700BF
S11300400C9447000C9447000C9447000C94010155
S11300500C94470011241FBECFE5D4E0DEBFCDBF12
S113006010E0A0E6B0E0E8E8FFE002C005900D92E1
S1130070AE3AB107D9F720E0AEEAB0E001C01D9274
S1130080A03CB207E1F70E9409020C94C2070C9449
S11300900000AE9A00C0AE980895CF93DF93D82F96
S11300A0662311F0AC9A01C0AC98AD9884B38F600C
S11300B084BBC5B3C07F8D2F82958F708C2B85BB7D
S11300C00E944900DF70DC2BD5BB0E944900CF6041
S11300D0C5BBDF91CF910895882311F0AC9A01C07C
S11300E0AC98AD9A84B3807F84BBAE9A00C093B3BE
S11300F0AE9800C0AE9A00C023B32F70892F8295AA
S1130100807FAE98822B089580E00E946C00882343
S1130110DCF300C080E00E946C000895CF93C82FE8
S11301200E94840060E08C2F0E944D00CF910895BE
S1130130611104C080580E948E00089580540E946A
S11301408E00089581E00E948E000895CF93C82FF9
S11301500E948400CA3049F4803410F080E001C069
S113016080E480580E948E0004C061E08C2F0E94BD
S11301704D00CF910895CF93DF93EC012196FC01BC
S11301808081882329F00E94A60089918111FBCFE8
S1130190DF91CF9108951F93CF93DF93182F84B3EA
S11301A08F6784BB80EA9FE00197F1F7A99AA89A28
S11301B00E94490080EE94E00197F1F70E94490003
S11301C0C0E1D0E0CE010197F1F70E944900CE01D1
S11301D00197F1F7A8980E9449002197F1F788E266
S11301E00E948E0088E00E948E000E94A20086E099
S11301F00E948E00812F0E948E00DF91CF911F916B
S113020008951F920F920FB60F9211240F900FBEF4
S11302100F901F9018950F931F93CF93DF93EC01CA
S1130220DB01FA019091B00080917200891788F087
S113023041E050E088819A01092E02C0220F331F49
S11302400A94E2F7282B28839F5F80917200891714
S113025088F70FEFC1E0D0E00C931091B0008091CB
S113026072008117C8F3612F70E0CE01012E02C025
S1130270880F991F0A94E2F780958C9300C020910F
S1130280710030917000321708F44BC08081422F06
S113029050E090E0022E02C0959587950A94E2F70B
S11302A080FD3CC00CC08081422F50E090E0022EC3
S11302B002C0959587950A94E2F780FD2FC087EADE
S11302C091E60197F1F700C0000021E030E0042E30
S11302D002C0220F331F0A94E2F7808190E0822348
S11302E09323892BD1F387EA91E60197F1F700C0B4
S11302F000008091720090E0861B970B20917000A3
S113030030E0241B350B880F991F880F991F805AE2
S11303109F4FFC01E20FF31F80810AC02F5F321749
S113032010F61F5F80917200811708F09CCF94CF64
S1130330DF91CF911F910F910895E199FECF9FBB5B
S11303408EBB6DBBF894E29AE19A789408951F925B
S11303500F920FB60F9211242F933F934F935F93F5
S11303606F937F938F939F93AF93BF93CF93DF93B9
S1130370EF93FF9364B175B1C091AE00D091AF001B
S113038080E090E00E94DD0320E030E04FE753E49A
S11303900E946B0420E030EC4FE754E40E943503E4
S11303A00E94A703CE010E949D018091AE0090910E
S11303B0AF0001969093AF008093AE008091AE00A1
S11303C09091AF008115924044F088E083BF0E9471
S11303D0A20083E790E00E94BB0083E088BFFF9106
S11303E0EF91DF91CF91BF91AF919F918F917F91C9
S11303F06F915F914F913F912F910F900FBE0F908E
S11304001F901895E199FECF9FBB8EBBE09A8DB3E8
S11304100895C0E0D0E060E0CE010E949D012196E5
S1130420C11582E0D807B9F7789480E487B98BEBDB
S113043086B980E680BF8DE083BF83EF8CBF82E006
S113044089BF83E088BF8CE00E94CB0080E890E005
S11304500E94BB00C12CD12CC0E0D0E00F2EF9E9E2
S1130460EF2EF0E0FF2EF02D01EB10E068948824CD
S113047083F899249394A12C0F2EFDE0BF2EF02D28
S113048002C0C12CD12C40E350E062E370E081E370
S113049090E00E940B018D3009F062C0CD2BC9F0B1
S11304A0C0E0D0E060E0CE010E949D012196C1151C
S11304B092E0D907B9F71092AF001092AE000E94F3
S11304C0A20080E890E00E94BB00B3BEC0E0D0E090
S11304D0DACF8091AE009091AF0001979093AF0076
S11304E08093AE0083BE0E94A2008CE890E00E943C
S11304F0BB0061E080E00E9498008091AE00909182
S1130500AF009F938F93FF92EF921F930F930E94DC
S1130510D804C8010E94BB0089EA90E00E94BB0095
S11305208091AE009091AF000E9402021F928F93BF
S1130530FF92EF921F930F930E94D804C8010E9468
S1130540BB00C090AE00D090AF008DB79EB70C96A4
S11305500FB6F8949EBF0FBE8DBFC92DDA2D93CF71
S11305608F30D9F5C130D10509F08DCF91E0C91A8A
S1130570D1080AF486CF61E080E00E9498008CE9FB
S113058090E00E94BB0061E080E00E949800DF924E
S1130590CF92FF92EF921F930F930E94D804C80149
S11305A00E94BB0089EA90E00E94BB00C6010E9441
S11305B002021F928F93FF92EF921F930F930E9458
S11305C0D804C8010E94BB008DB79EB70C960FB625
S11305D0F8949EBF0FBE8DBF56CF8E3009F053CF17
S11305E0C130D10509F04FCF9FEFC91AD90A8091C4
S11305F0AE009091AF008C159D0594F161E080E010
S11306000E9498008CE990E00E94BB0061E080E0C9
S11306100E949800DF92CF92FF92EF921F930F9364
S11306200E94D804C8010E94BB0089EA90E00E949D
S1130630BB00C6010E9402021F928F93FF92EF92A9
S11306401F930F930E94D804C8010E94BB008DB76A
S11306509EB70C960FB6F8949EBF0FBE8DBF13CFF6
S1130660C090AE00D090AF000ECF0E9449030C940E
S113067031040E942A0458F00E94230440F029F413
S11306805F3F29F00C941A0451110C9465040C94E6
S113069020040E94420468F39923B1F3552391F393
S11306A0951B550BBB27AA2762177307840738F0DD
S11306B09F5F5F4F220F331F441FAA1FA9F335D03A
S11306C00E2E3AF0E0E832D091505040E695001CEE
S11306D0CAF72BD0FE2F29D0660F771F881FBB1FA8
S11306E0261737074807AB07B0E809F0BB0B802D86
S11306F0BF01FF2793585F4F3AF09E3F510578F0B2
S11307000C941A040C9465045F3FE4F3983ED4F30C
S1130710869577956795B795F7959F5FC9F7880F85
S1130720911D9695879597F90895E1E0660F771FD7
S1130730881FBB1F621773078407BA0720F0621B68
S1130740730B840BBA0BEE1F88F7E09508950E9493
S1130750AE036894B1110C94650408950E944A0490
S113076088F09F5798F0B92F9927B751B0F0E1F06E
S1130770660F771F881F991F1AF0BA95C9F714C01E
S1130780B13091F00E946404B1E008950C946404C3
S1130790672F782F8827B85F39F0B93FCCF3869557
S11307A077956795B395D9F73EF4909580957095B4
S11307B061957F4F8F4F9F4F0895E89409C097FB31
S11307C03EF490958095709561957F4F8F4F9F4F24
S11307D09923A9F0F92F96E9BB279395F695879568
S11307E077956795B795F111F8CFFAF4BB0F11F42B
S11307F060FF1BC06F5F7F4F8F4F9F4F16C08823D2
S113080011F096E911C0772321F09EE8872F762F07
S113081005C0662371F096E8862F70E060E02AF048
S11308209A95660F771F881FDAF7880F9695879534
S113083097F9089597F99F6780E870E060E008955C
S11308409FEF80EC089500240A94161617061806E4
S11308500906089500240A941216130614060506C0
S11308600895092E0394000C11F4882352F0BB0F51
S113087040F4BF2B11F460FF04C06F5F7F4F8F4FB4
S11308809F4F089557FD9058440F551F59F05F3FEF
S113089071F04795880F97FB991F61F09F3F79F09E
S11308A087950895121613061406551FF2CF469520
S11308B0F1DF08C0161617061806991FF1CF8695A2
S11308C07105610508940895E894BB276627772786
S11308D0CB0197F908950E947E040C9431040E9480
S11308E0230438F00E942A0420F0952311F00C947C
S11308F01A040C94200411240C9465040E944204EC
S113090070F3959FC1F3950F50E0551F629FF0015E
S1130910729FBB27F00DB11D639FAA27F00DB11D77
S1130920AA1F649F6627B00DA11D661F829F222700
S1130930B00DA11D621F739FB00DA11D621F839F87
S1130940A00D611D221F749F3327A00D611D231F5D
S1130950849F600D211D822F762F6A2F11249F57AB
S113096050409AF0F1F088234AF0EE0FFF1FBB1FAE
S1130970661F771F881F91505040A9F79E3F51056D
S113098080F00C941A040C9465045F3FE4F3983EE1
S1130990D4F3869577956795B795F795E7959F5F17
S11309A0C1F7FE2B880F911D9695879597F90895A9
S11309B0AEE0B0E0EEEDF4E00C9499070D891E89E9
S11309C086E08C831A8309838FEF9FE79E838D8350
S11309D0AE01475E5F4F6F89788DCE0101960E940C
S11309E0FA04EF81F885E00FF11F10822E96E4E0FF
S11309F00C94B507ABE0B0E0E0E0F5E00C948B07B5
S1130A006C017B018A01FC0117821682838181FFBC
S1130A10CCC1CE0101963C01F6019381F70193FD0F
S1130A20859193FF81917F01882309F4BAC18532AE
S1130A3039F493FD859193FF81917F01853229F4E7
S1130A40B60190E00E94F106E7CF912C212C312CC5
S1130A50FFE1F315D8F08B3279F038F4803279F075
S1130A608332A1F4232D20611DC08D3261F08033C7
S1130A7069F4232D216016C0832D8260382EE32D66
S1130A80E4603E2E2AC0F32DF8601DC037FC2DC053
S1130A9020ED280F2A3040F08E32B9F436FC81C1A3
S1130AA0232D2064322E19C036FE06C08AE0989E9B
S1130AB0200D1124922E11C0EAE02E9E200D112447
S1130AC0222EF32DF0623F2E08C08C3621F4832DA4
S1130AD08068382E02C0883641F4F70193FD859171
S1130AE093FF81917F018111B3CF982F9F7D9554FE
S1130AF0933028F40C5F1F4F9FE399830DC0833616
S1130B0031F0833771F0833509F059C021C0F80101
S1130B10808189830E5F1F4F88248394912C530115
S1130B2013C02801F2E04F0E511CF801A080B180DF
S1130B3036FE03C0692D70E002C06FEF7FEFC50180
S1130B400E94E6064C018201F32DFF773F2E16C06A
S1130B50280122E0420E511CF801A080B18036FE2B
S1130B6003C0692D70E002C06FEF7FEFC5010E94E2
S1130B70DB064C01F32DF0683F2E820133FC1BC0D1
S1130B80822D90E088169906B0F4B60180E290E0D8
S1130B900E94F1062A94F4CFF50137FC859137FEC3
S1130BA081915F01B60190E00E94F10621102A9420
S1130BB021E0821A91088114910471F7E8C0843607
S1130BC011F0893641F5F80137FE07C06081718163
S1130BD0828193810C5F1F4F08C060817181072E51
S1130BE0000C880B990B0E5F1F4FF32DFF763F2EE1
S1130BF097FF09C090958095709561957F4F8F4FB1
S1130C009F4FF0683F2E2AE030E0A3010E942D0799
S1130C10882E861845C0853731F4232D2F7EB22EB9
S1130C202AE030E025C0932D997FB92E8F36C1F08C
S1130C3018F4883579F0B5C0803719F0883721F079
S1130C40B0C0E92FE061BE2EB4FE0DC0FB2DF460F0
S1130C50BF2E09C034FE0AC0292F2660B22E06C05A
S1130C6028E030E005C020E130E002C020E132E0BD
S1130C70F801B7FE07C060817181828193810C5FA6
S1130C801F4F06C06081718180E090E00E5F1F4FAE
S1130C90A3010E942D07882E8618FB2DFF773F2E77
S1130CA036FE0DC0232D2E7FA22E891458F434FE57
S1130CB00BC032FC09C0832D8E7EA82E05C0B82C33
S1130CC0A32C03C0B82C01C0B92CA4FE0FC0FE0194
S1130CD0E80DF11D8081803321F49A2D997EA92E8F
S1130CE009C0A2FE06C0B394B39404C08A2D8678CA
S1130CF009F0B394A3FC11C0A0FE06C0B21488F49A
S1130D00280C922C9B180EC0B21460F4B60180E239
S1130D1090E00E94F106B394F7CFB21418F42B18A4
S1130D2002C0982C212CA4FE10C0B60180E390E0F0
S1130D300E94F106A2FE17C0A1FC03C088E790E060
S1130D4002C088E590E0B6010CC08A2D867859F07F
S1130D50A1FE02C08BE201C080E2A7FC8DE2B601D5
S1130D6090E00E94F106891438F4B60180E390E023
S1130D700E94F1069A94F7CF8A94F301E80DF11DCD
S1130D808081B60190E00E94F1068110F5CF222007
S1130D9009F442CEB60180E290E00E94F1062A9462
S1130DA0F6CFF6018681978102C08FEF9FEF2B96D5
S1130DB0E2E10C94A707FC0105906150704001101A
S1130DC0D8F7809590958E0F9F1F0895FC01615070
S1130DD0704001900110D8F7809590958E0F9F1F59
S1130DE008950F931F93CF93DF93FB01238121FD7C
S1130DF003C08FEF9FEF2CC022FF16C0468157819E
S1130E00248135814217530744F4A081B1819D01A7
S1130E102F5F3F4F318320838C93268137812F5F4F
S1130E203F4F3783268314C08B01EC01FB01008400
S1130E30F185E02D0995892BE1F6D80116968D915F
S1130E409C911797019617969C938E931697CE01B3
S1130E50DF91CF911F910F910895FA01AA272830AD
S1130E6051F1203181F1E8946F936E7F6E5F7F4F73
S1130E708F4F9F4FAF4FB1E03ED0B4E03CD0670FEF
S1130E80781F891F9A1FA11D680F791F8A1F911D42
S1130E90A11D6A0F711D811D911DA11D20D009F492
S1130EA068943F912AE0269F11243019305D3193D4
S1130EB0DEF6CF010895462F4770405D4193B3E0BD
S1130EC00FD0C9F7F6CF462F4F70405D4A3318F064
S1130ED0495D31FD4052419302D0A9F7EACFB4E015
S1130EE0A6959795879577956795BA95C9F70097CD
S1130EF06105710508959B01AC010A2E069457956E
S1130F00479537952795BA95C9F7620F731F841FC4
S1130F10951FA01D08952F923F924F925F926F925A
S1130F207F928F929F92AF92BF92CF92DF92EF9275
S1130F30FF920F931F93CF93DF93CDB7DEB7CA1BF6
S1130F40DB0B0FB6F894DEBF0FBECDBF09942A8821
S1130F50398848885F846E847D848C849B84AA84C9
S1130F60B984C884DF80EE80FD800C811B81AA8156
S1130F70B981CE0FD11D0FB6F894DEBF0FBECDBF21
S10B0F80ED010895F894FFCF80
S1130F880D0E000F0C0302010B0605040A090807DD
S1130F98070403454550524F4D206C6C656E610043
S1130FA853656E73616E646F2E2E2E00556C7469D2
S1130FB86D6F732076616C2E00256400202020203C
S1110FC8202020202020202020202020000097
S9030000FC
