:100000000C942A000C943F000C943F000C943F0089
:100010000C943F000C943F000C943F000C943F0064
:100020000C943F000C943F000C943F000C943F0054
:100030000C943F000C943F000C943F000C943F0044
:100040000C943F000C943F000C943F000C943F0034
:100050000C943F0011241FBECFE5D4E0DEBFCDBF1E
:1000600010E0A0E6B0E0EEE3F2E002C005900D92F1
:10007000A037B107D9F70E94F9000C941D010C9428
:100080000000AE9A00C0AE980895CF93DF93D82FAA
:10009000662311F0AC9A01C0AC98AD9884B38F6020
:1000A00084BBC5B3C07F8D2F82958F708C2B85BB91
:1000B0000E944100DF70DC2BD5BB0E944100CF6065
:1000C000C5BBDF91CF910895882311F0AC9A01C090
:1000D000AC98AD9A84B3807F84BBAE9A00C093B3D2
:1000E000AE9800C0AE9A00C023B32F70892F8295BE
:1000F000807FAE98822B089580E00E946400882360
:10010000DCF300C080E00E9464000895CF93C82F04
:100110000E947C0060E08C2F0E944500CF910895E2
:10012000611104C080580E948600089580540E9486
:100130008600089581E00E9486000895CF93C82F1D
:100140000E947C00CA3049F4803410F080E001C085
:1001500080E480580E94860004C061E08C2F0E94D9
:100160004500CF910895CF93DF93EC012196FC01D8
:100170008081882329F00E949E0089918111FBCF04
:10018000DF91CF9108951F93CF93DF93182F84B3FE
:100190008F6784BB80EA9FE00197F1F7A99AA89A3C
:1001A0000E94410080EE94E00197F1F70E94410027
:1001B000C0E1D0E0CE010197F1F70E944100CE01ED
:1001C0000197F1F7A8980E9441002197F1F788E282
:1001D0000E94860088E00E9486000E949A0086E0C5
:1001E0000E948600812F0E948600DF91CF911F918F
:1001F00008958CE00E94C30060E087E00E949000B8
:1002000080E690E00E94B3002FE78AE196E021505B
:1002100080409040E1F700C000008CE10E94860021
:100220002FE78AE196E0215080409040E1F700C03E
:0E023000000088E10E948600FFCFF894FFCF07
:10023E005157455251574552515745525157450006
:00000001FF
